{
  "_format": "hh-sol-artifact-1",
  "contractName": "buyachai",
  "sourceName": "contracts/buyachai.sol",
  "abi": [
    {
      "inputs": [],
      "stateMutability": "nonpayable",
      "type": "constructor"
    },
    {
      "anonymous": false,
      "inputs": [
        {
          "indexed": false,
          "internalType": "string",
          "name": "name",
          "type": "string"
        },
        {
          "indexed": false,
          "internalType": "string",
          "name": "message",
          "type": "string"
        },
        {
          "indexed": false,
          "internalType": "uint256",
          "name": "timestamp",
          "type": "uint256"
        },
        {
          "indexed": false,
          "internalType": "address",
          "name": "from",
          "type": "address"
        }
      ],
      "name": "transaction_successful",
      "type": "event"
    },
    {
      "inputs": [
        {
          "internalType": "string",
          "name": "name",
          "type": "string"
        },
        {
          "internalType": "string",
          "name": "message",
          "type": "string"
        }
      ],
      "name": "buyChai",
      "outputs": [],
      "stateMutability": "payable",
      "type": "function"
    },
    {
      "inputs": [],
      "name": "getTransactions",
      "outputs": [
        {
          "components": [
            {
              "internalType": "string",
              "name": "name",
              "type": "string"
            },
            {
              "internalType": "string",
              "name": "message",
              "type": "string"
            },
            {
              "internalType": "uint256",
              "name": "timestamp",
              "type": "uint256"
            },
            {
              "internalType": "address",
              "name": "from",
              "type": "address"
            }
          ],
          "internalType": "struct buyachai.transaction_struct[]",
          "name": "",
          "type": "tuple[]"
        }
      ],
      "stateMutability": "view",
      "type": "function"
    },
    {
      "inputs": [],
      "name": "minimum_amount",
      "outputs": [
        {
          "internalType": "uint256",
          "name": "",
          "type": "uint256"
        }
      ],
      "stateMutability": "view",
      "type": "function"
    }
  ],
  "bytecode": "0x6080604052348015600f57600080fd5b50336000806101000a81548173ffffffffffffffffffffffffffffffffffffffff021916908373ffffffffffffffffffffffffffffffffffffffff160217905550655af3107a4000600181905550610cc98061006c6000396000f3fe6080604052600436106100345760003560e01c80636a13d8591461003957806383920e9014610055578063a9a67eb914610080575b600080fd5b610053600480360381019061004e919061055e565b6100ab565b005b34801561006157600080fd5b5061006a610306565b60405161007791906107f5565b60405180910390f35b34801561008c57600080fd5b506100956104e9565b6040516100a29190610826565b60405180910390f35b60015434116100ef576040517f08c379a00000000000000000000000000000000000000000000000000000000081526004016100e6906108c4565b60405180910390fd5b60008054906101000a900473ffffffffffffffffffffffffffffffffffffffff1673ffffffffffffffffffffffffffffffffffffffff166108fc349081150290604051600060405180830381858888f19350505050158015610155573d6000803e3d6000fd5b506002604051806080016040528086868080601f016020809104026020016040519081016040528093929190818152602001838380828437600081840152601f19601f82011690508083019250505050505050815260200184848080601f016020809104026020016040519081016040528093929190818152602001838380828437600081840152601f19601f8201169050808301925050505050505081526020014281526020013373ffffffffffffffffffffffffffffffffffffffff16815250908060018154018082558091505060019003906000526020600020906004020160009091909190915060008201518160000190816102559190610b1f565b50602082015181600101908161026b9190610b1f565b506040820151816002015560608201518160030160006101000a81548173ffffffffffffffffffffffffffffffffffffffff021916908373ffffffffffffffffffffffffffffffffffffffff16021790555050507fa9ef25c6d5cf6d8b1b989371a2df1b9aa4e4a714588bca09bc566e4f422cd8998484848442336040516102f896959493929190610c3c565b60405180910390a150505050565b60606002805480602002602001604051908101604052809291908181526020016000905b828210156104e0578382906000526020600020906004020160405180608001604052908160008201805461035d90610942565b80601f016020809104026020016040519081016040528092919081815260200182805461038990610942565b80156103d65780601f106103ab576101008083540402835291602001916103d6565b820191906000526020600020905b8154815290600101906020018083116103b957829003601f168201915b505050505081526020016001820180546103ef90610942565b80601f016020809104026020016040519081016040528092919081815260200182805461041b90610942565b80156104685780601f1061043d57610100808354040283529160200191610468565b820191906000526020600020905b81548152906001019060200180831161044b57829003601f168201915b50505050508152602001600282015481526020016003820160009054906101000a900473ffffffffffffffffffffffffffffffffffffffff1673ffffffffffffffffffffffffffffffffffffffff1673ffffffffffffffffffffffffffffffffffffffff16815250508152602001906001019061032a565b50505050905090565b60015481565b600080fd5b600080fd5b600080fd5b600080fd5b600080fd5b60008083601f84011261051e5761051d6104f9565b5b8235905067ffffffffffffffff81111561053b5761053a6104fe565b5b60208301915083600182028301111561055757610556610503565b5b9250929050565b60008060008060408587031215610578576105776104ef565b5b600085013567ffffffffffffffff811115610596576105956104f4565b5b6105a287828801610508565b9450945050602085013567ffffffffffffffff8111156105c5576105c46104f4565b5b6105d187828801610508565b925092505092959194509250565b600081519050919050565b600082825260208201905092915050565b6000819050602082019050919050565b600081519050919050565b600082825260208201905092915050565b60005b8381101561064557808201518184015260208101905061062a565b60008484015250505050565b6000601f19601f8301169050919050565b600061066d8261060b565b6106778185610616565b9350610687818560208601610627565b61069081610651565b840191505092915050565b6000819050919050565b6106ae8161069b565b82525050565b600073ffffffffffffffffffffffffffffffffffffffff82169050919050565b60006106df826106b4565b9050919050565b6106ef816106d4565b82525050565b600060808301600083015184820360008601526107128282610662565b9150506020830151848203602086015261072c8282610662565b915050604083015161074160408601826106a5565b50606083015161075460608601826106e6565b508091505092915050565b600061076b83836106f5565b905092915050565b6000602082019050919050565b600061078b826105df565b61079581856105ea565b9350836020820285016107a7856105fb565b8060005b858110156107e357848403895281516107c4858261075f565b94506107cf83610773565b925060208a019950506001810190506107ab565b50829750879550505050505092915050565b6000602082019050818103600083015261080f8184610780565b905092915050565b6108208161069b565b82525050565b600060208201905061083b6000830184610817565b92915050565b600082825260208201905092915050565b7f506c6561736520706179206d6f7265207468616e20302e30303031206574686560008201527f7200000000000000000000000000000000000000000000000000000000000000602082015250565b60006108ae602183610841565b91506108b982610852565b604082019050919050565b600060208201905081810360008301526108dd816108a1565b9050919050565b7f4e487b7100000000000000000000000000000000000000000000000000000000600052604160045260246000fd5b7f4e487b7100000000000000000000000000000000000000000000000000000000600052602260045260246000fd5b6000600282049050600182168061095a57607f821691505b60208210810361096d5761096c610913565b5b50919050565b60008190508160005260206000209050919050565b60006020601f8301049050919050565b600082821b905092915050565b6000600883026109d57fffffffffffffffffffffffffffffffffffffffffffffffffffffffffffffffff82610998565b6109df8683610998565b95508019841693508086168417925050509392505050565b6000819050919050565b6000610a1c610a17610a128461069b565b6109f7565b61069b565b9050919050565b6000819050919050565b610a3683610a01565b610a4a610a4282610a23565b8484546109a5565b825550505050565b600090565b610a5f610a52565b610a6a818484610a2d565b505050565b5b81811015610a8e57610a83600082610a57565b600181019050610a70565b5050565b601f821115610ad357610aa481610973565b610aad84610988565b81016020851015610abc578190505b610ad0610ac885610988565b830182610a6f565b50505b505050565b600082821c905092915050565b6000610af660001984600802610ad8565b1980831691505092915050565b6000610b0f8383610ae5565b9150826002028217905092915050565b610b288261060b565b67ffffffffffffffff811115610b4157610b406108e4565b5b610b4b8254610942565b610b56828285610a92565b600060209050601f831160018114610b895760008415610b77578287015190505b610b818582610b03565b865550610be9565b601f198416610b9786610973565b60005b82811015610bbf57848901518255600182019150602085019450602081019050610b9a565b86831015610bdc5784890151610bd8601f891682610ae5565b8355505b6001600288020188555050505b505050505050565b82818337600083830152505050565b6000610c0c8385610841565b9350610c19838584610bf1565b610c2283610651565b840190509392505050565b610c36816106d4565b82525050565b60006080820190508181036000830152610c5781888a610c00565b90508181036020830152610c6c818688610c00565b9050610c7b6040830185610817565b610c886060830184610c2d565b97965050505050505056fea2646970667358221220d9e206dc0d9ef8330d606135acd3acbca98f5a54af9138e3b76ae8630b900ccb64736f6c634300081c0033",
  "linkReferences": {},
  "deployedLinkReferences": {}
}